:10000E000004000429042C042708250424022C02D1
:10001E0027082504240229022508240422040004AA
:10002E000004000400041210141016101D04250400
:10003E00240420022C022708250424022C0227085F
:10004E002504240229022508240422040A1006028B
:10005E000D02120C08020F02140C0A021102160CE9
:10006E001D04250424042004220220022202290455
:10007E000004220222022002220227062504240462
:10008E0020041D041B040A021102160400080602B5
:10009E000D021204000808020F02140400080A02DE
:1000AE00110216040008250424042204200422024E
:1000BE00200222022904000422022202200222022D
:1000CE00270625042406220600040A02110216043D
:1000DE00000806020D021204000808020F021404A2
:1000EE0000080A02110216040008220400041D046E
:1000FE0020041B081904180220021B0819041802F8
:10010E001D021908180416040A021102160400082A
:10011E0006020D021204000808020F021404000861
:10012E000A021102160400081D04250424042004EA
:10013E002704250418042C04270825042402290268
:10014E002508240422040A021102160400080602DD
:10015E000D021204000808020F02140400080A021D
:10016E0011021604000811041904250224022202A9
:10017E0020022704250418042C0427082504240231
:10018E0029022508240422040A021102160400087A
:10019E0006020D021204000808020F0214040008E1
:0901AE000A02110216040008FF08
:1002430020620A0000F88CF8F3F95BF9B8FA15FAA2
:1002530067FAB9FB04FB4BFB90FBCFFC0CFC44FCA3
:1002630079FCACFCDCFD09FD34FD5CFD82FDA6FDE3
:10027300C8FDE8FE06FE22FE3DFE56FE6EFE85FE2E
:100283009AFEAEFEC1FED3FEE4FEF4FF03FF2BFF96
:1002930037FF42FF4DFF57FF61FF6AFF72FF7AFF8F
:0802A30081FF82FF83010900C5
:1002E000120311E50890000E93FFF460208F0905BA
:1002F00008E5089375F03EA4FFAEF0120328050848
:10030000C28C7F057E00120328D28C80D6C28C80DE
:01031000FEEE
:03000B000202AC42
:1002AC00C0E0C0D075D000C000C006E50925E02430
:1002BC000AF8E6FE08E64E6012E50925E0240AF885
:1002CC00E6FE08E6F58AEEF58CB2A5D006D000D095
:0402DC00D0D0E0326C
:100311005389F0438901758A66758CFCC28DD28C34
:07032100D2A9D2AFC2B9223C
:10032800EF1FAC0670011E4C600A7D027CC7DCFE24
:04033800DDFC80EC7C
:01033C00229E
:030000000201B743
:0C01B700787FE4F6D8FD75816B0201FE34
:1001C3000202E0E493A3F8E493A34003F68001F270
:1001D30008DFF48029E493A3F85407240CC8C3333D
:1001E300C4540F4420C8834004F456800146F6DF0C
:1001F300E4800B0102040810204080900243E47E57
:10020300019360BCA3FF543F30E509541FFEE49300
:10021300A360010ECF54C025E060A840B8E493A3C7
:10022300FAE493A3F8E493A3C8C582C8CAC583CAF2
:10023300F0A3C8C582C8CAC583CADFE9DEE780BEAA
:0102AB000052
:00000001FF
